:020000040000FA
:0400000071EF6BF041
:10D1810046719E7198120058EC69F0C580120058E2
:10D19100EC69F0C584120058EC69F0C582120001F7
:10D1A1000E68EC69F012006EDA82333366F5E6C17F
:10D1B100EC68F028EC6BF01200100E056E5F502346
:10D1C100EC69F01200FF0E016E120EA1EC6AF01272
:10D1D10000120E68EC69F0036E0350120009EC6A4C
:10D1E100F005C068F006C069F01200046E04C001C9
:10D1F100F0010EA1EC6AF01200016E72A2FED701DD
:10D20100C073FF72B21200FDD7016E0150D8B40392
:10D21100D0B80E5F6E1200460E5F6E1200D0EC6841
:10D22100F0056E0550F80B056E0550F6EC68F0122E
:10D2310000D0EC68F0056E05508009056E0550F6CA
:10D24100EC68F01200066EC4EC68F00650B4EC69AC
:10D25100F00550B4EC69F0C8EC68F01200D0EC684D
:10D26100F0056E0550F80B056E05500109056E05B8
:10D2710050F6EC68F01200D0EC68F0576E5750F899
:10D281000B576E57500309576E5750F6EC68F01262
:10D2910000000E096E09501009096E000E056E0995
:10D2A100C006F0000E076E200EF3EC69F0120000CC
:10D2B1000E026E01D0022AC7B406D0C5CF01F01FFD
:10D2C1000E0116D8B41200950E0264F4D7120001B3
:10D2D1006EA49E8C9601C06FFFA4AEFED7A49E00E3
:10D2E1000E6F6EA4AEFED7A49E8C866FCF02F002A5
:10D2F100501200036E58EC69F0C58658EC69F0C90C
:10D30100CF04F058EC69F00350D8A402D0C58A01CB
:10D31100D0C59AC5880450120001500302F3CF050D
:10D32100F0F4CF06F001500402F350062602500338
:10D3310002F350062605C001F006C002F012009467
:10D341009C8B9C150E016EC60EE82EFED7012EFC9D
:10D35100D700D0948C680E016EE40EE82EFED70142
:10D361002EFCD700D01200036E58EC69F09E960394
:10D37100C0C9FF000E046E01D0042A9EB603D095E9
:10D381000E0464FAD7C5AC02D0010E1200000E12D1
:10D3910000C150F30B0809C16EC282C2B2FED7C4EC
:10D3A10050046E036AC3500324056E000E04200668
:10D3B1006E05C001F006C002F01200026E080E03F5
:10D3C1006E000E046ED89002340434046ED89002BC
:10D3D100360150045CD8A002D00150045E032EF245
:10D3E100D704501200086EC4EC68F00850B4EC6920
:10D3F100F05E6E0550B4EC69F05E6E0650B4EC69F7
:10D40100F05E6E0750B4EC69F05E6EC8EC68F01225
:10D4110000C4EC68F05F28B4EC69F0010E7AEC69A5
:10D42100F0096E010E7AEC69F00A6EC8EC68F00939
:10D4310050076E0A50056E07C006F01200F30EC1C8
:10D4410016C250830B0409C26EC282C2B2FED7C497
:10D4510050046E036AC3500324056E000E042006B7
:10D461006E05C001F006C002F01200015002100367
:10D47100100410D8B408D0000E011A000E021A00D0
:10D481000E031A800E041A01C001F002C002F0035B
:10D49100C003F004C004F0120038813883928092F6
:10D4A10082F30EC116FC0EC1164251CF0B10094278
:10D4B1006F428F830EC216C050C70B1009C06EC0D9
:10D4C10050F80B0609C06EC08EC280120082B812DD
:10D4D100009496000E026E8B96150E016EC60EE834
:10D4E1002EFED7012EFCD700D08B86150E016EC6FD
:10D4F1000EE82EFED7012EFCD700D0022A070E021D
:10D5010064EAD794861200066E000E086E0550D8A4
:10D51100B415D0010E076E03D0D8900536072A0541
:10D52100AEFBD7D89008360550065CD8A003D005CD
:10D5310050065E0880D8900532072EF3D7085012A6
:10D5410000036EA49E8C961A0EE82EFED700D0031F
:10D55100508009036E03C06FFFA4AEFED7A49E1ACC
:10D561000EE82EFED700D001C06FFFA4AEFED71A81
:10D571000EE82EFED700D08C86A49E6F5012000BB1
:10D581006EC4EC68F00B50B4EC69F05E6E0550B4FB
:10D59100EC69F05E6ECCEC68F00B28B4EC69F05EDF
:10D5A1006E010E7AEC69F0096E000E7AEC69F00AF0
:10D5B1006EC8EC68F00A50076E0950056E07C00688
:10D5C100F012000F013D913E9D3E9F389592948946
:10D5D100943C933C953999969296948D944DEC6A2E
:10D5E100F0A00E0E6E860E0F6E010E106E000E1163
:10D5F1006EBDEC6BF067EC6AF049EC69F0000E056A
:10D60100EC69F0DDEC68F01200000E4B1A000E4CD4
:10D611001A000E4D1A800E4E1A47C037F048C03816
:10D62100F049C039F04AC03AF04BC03BF04CC03C25
:10D63100F04DC03DF04EC03EF0F6EC74F037C047FF
:10D64100F038C048F039C049F03AC04AF01200C27F
:10D65100900F01429F000E926E000E936E000E9489
:10D661006E000E956E000E966E000E896E000E8A8B
:10D671006E000E8B6E000E8C6E000E8D6E948C8B78
:10D681008C948694888984958E95823B938C863F71
:10D69100693E693D6912002FEC69F0000E016E0DC3
:10D6A1000EA1EC6AF0000E016E220EA1EC6AF000F0
:10D6B1000E5A6E0AD058505A24D96EDA6ADF5001D8
:10D6C1006E000EA1EC6AF05A2A59505A5CD8A0F2A9
:10D6D100D759C001F0220EA1EC6AF03CEC69F012BE
:10D6E10000A80EF66ED10EF76E000EF86E00EEC3B6
:10D6F100F010EE08F00900F5CFEEFFE550E150FA29
:10D70100E1810EF66ED10EF76E000EF86E0900F58E
:10D71100CF5FF000EE60F0440EEE6AE806FDE15ED8
:10D721006A000EF86E000188EF6FF067EC6AF0078F
:10D731000E056E200EC0EC6AF005C070F006C071D7
:10D74100F0090E056E200EC0EC6AF005C06EF00601
:10D75100C06FF00A0E056E200EC0EC6AF005C06CB9
:10D76100F006C06DF00B0E056E200EC0EC6AF005E0
:10D77100C06AF006C06BF01200948694883A973A1A
:10D7810099280EC66E000E016E900E026ED00E0329
:10D791006E030E046E0EC012F00FC013F010C01411
:10D7A100F011C015F0020ED890123613361436154A
:10D7B10036E82EF9D712C005F013C006F014C007E1
:10D7C100F015C008F01BEC6DF00104C86E120007E3
:10D7D1006808681CD00150D96EDA6ADF5007180654
:10D7E1006E012A08C007F0086A0650020D4D0EF3BB
:10D7F10024F66EFC0EF420F76E0900F5CF04F00953
:10D8010000F5CF05F00450071A0550081A0206D892
:10D81100A003060228DFE10328D8A4DCD707C00152
:10D82100F008C002F01200016E729E729C728A7240
:10D831009872967284718E719C71887196709E70C7
:10D841009A70987086709270900104D8A405D003E4
:10D851000E766E400E756E12000150D8A405D006EA
:10D861000E766E820E756E1200030E0118D8A40595
:10D87100D0000E766E8A0E756E1200010E766E174E
:10D881000E756E12000F01389595829598959095B9
:10D89100963B933B993B973B918C866C986D8C6D35
:10D8A1008E6C50F00B02096C6E6C8AA0EC69F0D0A2
:10D8B1000E4B6ECA0EE82EFED74B2EFCD719EC6923
:10D8C100F0D00E4B6ECA0EE82EFED74B2EFCD74A77
:10D8D10050BAEC71F046C03BF047C03CF048C03D47
:10D8E100F049C03EF0E1EC6CF0120012501310143C
:10D8F100101510D8B424D0010E166E06D0D890128F
:10D9010036133614361536162A15AEF8D712500EC0
:10D911005C13500F581450105815501158D8A008C6
:10D92100D012500E5E13500F5A1450105A15501148
:10D931005AD8901532143213321232162EE7D70EFE
:10D94100C00EF00FC00FF010C010F011C011F01296
:10D9510000000E066E02AE06D0016C021ED8B002A7
:10D961002A010E066E04AE04D0036C041ED8B00466
:10D971002A03500410D8B418D0010E056E04D0D873
:10D981009003360436052A04AEFAD70350015C042D
:10D99100500258D8A004D00350015E0450025AD856
:10D9A1009004320332052EF1D70650D8B404D001C9
:10D9B1006C021ED8B0022A01C001F002C002F012AE
:10D9C10000000E136E000E146E800E156E460E16BC
:10D9D1006E3BC00FF03CC010F03DC011F03EC012D4
:10D9E100F07CEC76F00FC031F010C032F011C03392
:10D9F100F012C034F0E3EC6DF031C042F032C043BC
:10DA0100F033C044F034C045F044C03FF043C0405F
:10DA1100F042C041F03FC001F0060EA1EC6AF040B7
:10DA2100C001F0070EA1EC6AF041C001F0080EA19F
:10DA3100EC6AF01200000E096E000E0A6E000E0B69
:10DA41006E000E0C6E0550061007100810D8B42A8F
:10DA5100D0010E0D6E06D0D8900536063607360871
:10DA6100360D2A08AEF8D7D89009360A360B360C8F
:10DA7100360550015C0650025807500358085004FF
:10DA810058D8A009D00550015E0650025A0750032C
:10DA91005A0850045A0980D89008320732063205D4
:10DAA100320D2EE1D709C001F00AC002F00BC0030C
:10DAB100F00CC004F01200000E0C6E0AAE06D00984
:10DAC1006C0A1ED8B00A2A010E0C6E08AE06D007E9
:10DAD1006C081ED8B0082A010E0C1A000E0E6E003A
:10DAE1000E0D6E09500A10D8B41CD0010E0B6E0435
:10DAF100D0D89009360A360B2A0AAEFAD7D8900D3B
:10DB0100360E360950075C0A500858D8A005D009CE
:10DB110050075E0A50085A0D80D8900A3209320B1C
:10DB21002EEDD70C50D8B404D00D6C0E1ED8B00E0B
:10DB31002A0DC007F00EC008F01200000E011409F2
:10DB41006E000E02140A6E800E03140B6E7F0E041B
:10DB5100140C6E09500A100B100C10D8A408D00038
:10DB61000E016E000E026E000E036E000E046E00BA
:10DB71000E0514096E000E06140A6E800E07140BB2
:10DB81006E7F0E08140C6E09500A100B100C10D881
:10DB9100A408D0000E056E000E066E000E076E0082
:10DBA1000E086E055001180AE10650021807E10738
:10DBB10050031804E108500418D8B402D0D89012C8
:10DBC10000D8801200333434343A6E3A50D8A40964
:10DBD100D0000E316E000E326E000E336E000E3428
:10DBE1006E120031C035F032C036F033C037F03438
:10DBF100C038F0200E05D0D8903832373236323561
:10DC010032E82EF9D73550396E338EFF0E3116FFBB
:10DC11000E3216FF0E3316000E3416960E3A5E3A89
:10DC2100AE0DD03A50800A970FD8A0D2D7D89034F1
:10DC3100323332323231323A3EF9D70DD01F0E3AF9
:10DC41006407D0C6D7D89031363236333634363AB7
:10DC5100063A50D8A4F7D73950D8B408D0341E3377
:10DC61001E321E316C000E32223322342231C03179
:10DC7100F032C032F033C033F034C034F012000659
:10DC81000E68EC69F0406E070E68EC69F0416E08B1
:10DC91000E68EC69F0426E41C02CF02D6A2E6A2F9D
:10DCA1006A2EC02FF02DC02EF02CC02DF02C6A4012
:10DCB100C030F0316A326A336A31C033F030C03279
:10DCC100F0316A306A2C503010346E2D50311035DD
:10DCD1006E2E503210366E2F503310376E42503444
:10DCE10010386E3550396E36503A6E37503B6E38BB
:10DCF100C001F039C002F03AC003F03BC004F000AB
:10DD01000E1AEC71F001C00FF002C010F003C01147
:10DD1100F004C012F0000E136E000E146E800E158A
:10DD21006E460E166EB2EC73F00FC03CF010C03DA3
:10DD3100F011C03EF012C03FF03CC028F03DC029B8
:10DD4100F03EC02AF03FC02BF01200000E01140972
:10DD51006E000E02140A6E800E03140B6E7F0E0409
:10DD6100140C6E09500A100B100C10D8A408D00026
:10DD71000E016E000E026E000E036E000E046E00A8
:10DD81000E0514096E000E06140A6E800E07140BA0
:10DD91006E7F0E08140C6E09500A100B100C10D86F
:10DDA100A408D0000E056E000E066E000E076E0070
:10DDB1000E086E04AE09D0016C021ED8B0022A030F
:10DDC1001ED8B0032A800E045608AE09D0056C0691
:10DDD1001ED8B0062A071ED8B0072A800E085600A2
:10DDE1000E011A000E021A000E031A800E041A0008
:10DDF1000E051A000E061A000E071A800E081A05E3
:10DE010050015C065002580750035808500458D876
:10DE1100B002D0D8901200D8801200033404340E1E
:10DE21006E0E50D8A409D0000E016E000E026E00D5
:10DE31000E036E000E046E1200073408340D6E0DD1
:10DE410050D8B4F1D7038EFF0E0116FF0E0216FF54
:10DE51000E0316000E0416078EFF0E0516FF0E06A2
:10DE610016FF0E0716000E0816000E096E000E0AA8
:10DE71006E000E0B6E000E0C6E7F0E0E5E0D50A02E
:10DE81000F0E5E200E0D6ED89009360A360B360C39
:10DE9100360550015C0650025807500358085004DB
:10DEA10058D8A009D00550015E0650025A07500308
:10DEB1005A0850045A0980D89001360236033604B4
:10DEC100360D2EE1D70EAE0DD00E50800A9F0FD821
:10DED100A0AAD7D8900C320B320A3209320E3EF981
:10DEE100D70DD01F0E0E6407D09ED7D89009360AE1
:10DEF100360B360C360E060E50D8A4F7D709C001E2
:10DF0100F00AC002F00BC003F00CC004F01200E2F2
:10DF1100EC6AF0DDEC68F00F0E5D6E9D0E5C6E3606
:10DF21000EE82EFED75C2EFCD75D2EFAD700D096D8
:10DF3100EC6BF0EFEC68F0C9EC69F001C066F0023F
:10DF4100C067F01FEC6AF001C064F002C065F00E1A
:10DF51000E0001665D020E6759D8A003D084EC70F3
:10DF6100F048D08D84190E5D6E5A0E5C6EB20EE8CB
:10DF71002EFED75C2EFCD75D2EFAD78D94190E5D3F
:10DF81006E5A0E5C6EB20EE82EFED75C2EFCD75D8B
:10DF91002EFAD78D84190E5D6E5A0E5C6EB20EE8A4
:10DFA1002EFED75C2EFCD75D2EFAD78D94190E5D0F
:10DFB1006E5A0E5C6EB20EE82EFED75C2EFCD75D5B
:10DFC1002EFAD78D84190E5D6E5A0E5C6EB20EE874
:10DFD1002EFED75C2EFCD75D2EFAD78D94190E5DDF
:10DFE1006E5A0E5C6EB20EE82EFED75C2EFCD75D2B
:10DFF1002EFAD7D8EC68F0010E00016027000E61FF
:10E001002362236323030083D703C009F00A6A0B49
:10E011006A0234093601E30A800950116E1150D8A1
:10E02100A409D0000E016E000E026E000E036E00F8
:10E031000E046E120007C009F00A6A0B6A06340961
:10E041003601E30A800950106E1050D8B4EAD702A5
:10E051008EFF0E0116FF0E0216000E0316068EFF2E
:10E061000E0516FF0E0616000E0716000E0C6E00AA
:10E071000E0D6E000E0E6E000E0F6E7F0E115E10F5
:10E0810050980F115E180E106ED8900C360D360E8A
:10E09100360F360550015C0650025807500358D818
:10E0A100A007D00550015E0650025A0750035A0CD2
:10E0B10080D890013602360336102EE6D711AE0D08
:10E0C100D01150800A970FD8A0ACD7D8900F320E3C
:10E0D100320D320C32113EF9D70DD0170E116407F3
:10E0E100D0A0D7D8900C360D360E360F361106114A
:10E0F10050D8A4F7D70CC001F00DC002F00EC00338
:10E10100F00FC004F01200320E726F000E736F0236
:10E111000E746F000EC26FC251C30FD96EDA6AC29C
:10E1210051750FE16EE26ADFCFE7FFC22B070EC226
:10E1310065F2D7050E7D6F63C07EF062C07FF0612E
:10E14100C080F060C081F067C082F066C083F06576
:10E15100C084F064C085F0000E866F000E876F00EA
:10E161000E886F000E896F71C08AF070C08BF06FDE
:10E17100C08CF06EC08DF06DC08EF06CC08FF06BF6
:10E18100C090F06AC091F069C092F068C093F0222B
:10E191000EC06FC051720FD96EDA6A000EDF6EC009
:10E1A1002B2F0EC065F6D7720E016E000E036E3076
:10E1B1000E026EE8EC6BF001C0BEF002C0BFF0BF12
:10E1C100C0A3F0BEC0A2F0000E466EA00E476E586E
:10E1D1000E486E440E496E550E4A6E43EC6CF0E3E8
:10E1E100EC68F08D84720E586E320E596E4CEC6BE9
:10E1F100F08D94000E0001C16FE9EC68F00001BDE3
:10E201006FBD51D8A40CD0D00E5B6ECA0EE82EFEA5
:10E21100D75B2EFCD70001C12B310EC165EDD70FA5
:10E22100EC69F0D00E5B6ECA0EE82EFED75B2EFCB9
:10E23100D71200096E0950D8A404AE1AD001C00546
:10E24100F002C006F003C007F004C008F0051E0686
:10E251001E071E081E052A000E0622072208220597
:10E26100C00BF006C00CF007C00DF008C00EF0089E
:10E27100D001C00BF002C00CF003C00DF004C00EC1
:10E28100F00150021003100410D8A409D0000E01AF
:10E291006E000E026E000E036E000E046E120096EA
:10E2A1000E0A6E06D00A2AD8900E320D320C320BAD
:10E2B10032000E0B14056E000E0C14066E000E0DCE
:10E2C10014076EFE0E0E14086E0550061007100896
:10E2D10010D8B40DD0E7D70A2A010E0B26000E0C78
:10E2E100220D220E22D8900E320D320C320B32004A
:10E2F1000E0B14056E000E0C14066E000E0D1407A5
:10E301006EFF0E0E14086E0550061007100810D887
:10E31100B407D0E1D70A06D8900B360C360D360E6D
:10E32100360DBE03D0020E0A60F5D70AA00D9ED8A5
:10E33100900A320AC005F0066A076A086A05C00831
:10E34100F0076A066A056A05500B1206500C12079F
:10E35100500D1208500E120950D8A404AE01D00E6F
:10E361008E0BC001F00CC002F00DC003F00EC00412
:10E37100F01200076E0FEC69F019EC69F02FEC69EF
:10E38100F0D00E066ECA0EE82EFED7062EFCD7D9A7
:10E391000E016E060EA1EC6AF0000E016E070EA1D1
:10E3A100EC6AF0000E016E080EA1EC6AF08F0E010E
:10E3B1006E090EA1EC6AF0090E016E0A0EA1EC6A5B
:10E3C100F02B0E016E0B0EA1EC6AF0230E016E0C08
:10E3D1000EA1EC6AF0000E016E0E0EA1EC6AF000C7
:10E3E1000E016E0F0EA1EC6AF0000E016E100EA16F
:10E3F100EC6AF0000E016E110EA1EC6AF0000E0144
:10E401006E130EA1EC6AF0720E016E1D0EA1EC6A84
:10E41100F0700E016E1E0EA1EC6AF0640E016E1F0B
:10E421000EA1EC6AF0000E016E200EA1EC6AF0085C
:10E431000E016E210EA1EC6AF0FF0E016E230EA1FA
:10E44100EC6AF0000E016E240EA1EC6AF0000E01E0
:10E451006E250EA1EC6AF0040E016E260EA1EC6A87
:10E46100F0450E016E2F0EA1EC6AF0550E016E30D3
:10E471000EA1EC6AF0C30E016E310EA1EC6AF02719
:10E481000E016E330EA1EC6AF0030E016E360EA181
:10E49100EC6AF00A0E016E370EA1EC6AF007C001BA
:10E4A100F0390EA1EC6AF0490E016E3A0EA1EC6A48
:10E4B100F0090E016E4B0EA1EC6AF0840E016E4D57
:10E4C1000EA1EC6AF01C0E016E610EA1EC6AF00E59
:10E4D1000E016E620EA1EC6AF05B0E016E630EA17D
:10E4E100EC6AF0CC0E016E640EA1EC6AF0D00E0164
:10E4F1006E700EA1EC6AF01200366E6D0E3664A0DD
:10E50100D0000E136E000E146E000E156E3F0E1627
:10E511006E640E056E365084EC6AF02C6E2D6AD84E
:10E52100902C362D36D8902C362D36480E2C2600C0
:10E531000E2D22810E2C24F66EFE0E2D20F76E0973
:10E5410000F5CF0FF00900F5CF10F00900F5CF115C
:10E55100F00A00F5CF12F07CEC76F00FC032F0102B
:10E56100C033F011C034F012C035F00A0E056E64EC
:10E571000E016E3650DEEC69F084EC6AF02C6E2DE3
:10E581006AD8902C362D36D8902C362D36240E2C68
:10E5910026000E2D22810E2C24F66EFE0E2D20F764
:10E5A1006E0900F5CF13F00900F5CF14F00900F55D
:10E5B100CF15F00A00F5CF16F032C00FF033C010BE
:10E5C100F034C011F035C012F07CEC76F00FC02EA3
:10E5D100F010C02FF011C030F012C031F02EC00F7A
:10E5E100F02FC010F030C011F031C012F00A0E014E
:10E5F1006E3650DEEC69F02C6E2D6AD8902C362DDB
:10E6010036D8902C362D36810E2C24F66EFE0E2D2A
:10E6110020F76E0900F5CF13F00900F5CF14F009CA
:10E6210000F5CF15F00A00F5CF16F07CEC76F00F6F
:10E63100C028F010C029F011C02AF012C02BF0122E
:10E64100000A0E366467D0000E136E000E146E00C1
:10E651000E156E3F0E166E0A0E056E365084EC6A6C
:10E66100F02C6E2D6AD8902C362D36D8902C362D64
:10E6710036240E2C26000E2D22810E2C24F66EFE41
:10E681000E2D20F76E0900F5CF0FF00900F5CF1020
:10E69100F00900F5CF11F00A00F5CF12F07CEC760D
:10E6A100F00FC032F010C033F011C034F012C03599
:10E6B100F032C00FF033C010F034C011F035C01289
:10E6C100F00A0E016E3650DEEC69F02C6E2D6AD820
:10E6D100902C362D36D8902C362D36810E2C24F6E2
:10E6E1006EFE0E2D20F76E0900F5CF13F00900F52F
:10E6F100CF14F00900F5CF15F00A00F5CF16F07C24
:10E70100EC76F00FC028F010C029F011C02AF012E9
:10E71100C02BF012003650040D810EF324F66EFE6C
:10E721000EF420F76E0900F5CF0FF00900F5CF10B8
:10E73100F00900F5CF11F00A00F5CF12F0000E1329
:10E741006E000E146E000E156E3F0E166E7CEC768A
:10E75100F00FC028F010C029F011C02AF012C02B10
:10E76100F012001250800B1F6E12501224266E11EF
:10E77100BE26802650D8B40DD02628D8A408D000B3
:10E781000E0F6E000E106E000E116E000E126E1145
:10E791008E06D0000E0F6E000E106E000E116E0070
:10E7A1000E126E1650800B1F1A16501624276E1566
:10E7B100BE27802750D8B40DD02728D8A408D00070
:10E7C1000E136E000E146E000E156E000E166E15F1
:10E7D1008E06D0000E136E000E146E000E156E0024
:10E7E1000E166E1350141015101610D8A417D00061
:10E7F1000E0F6E000E106E000E116E000E126E8066
:10E801000E11127F0E12121F5012120FC00FF010B4
:10E81100C010F011C011F012C012F012002650D831
:10E82100A409D0000E0F6E000E106E000E116E00C6
:10E831000E126E1200275026C017F0186A175E00DC
:10E841000E185A7F0E1724206E000E1820216E0F0D
:10E85100C01BF010C01CF011C01DF012C01EF00052
:10E861000E0F6E000E106E000E116E000E126E0075
:10E871000E226E000E236E000E246E000E256E0019
:10E881000E276E28D02750D8B411D0D8901B361C33
:10E89100361D361E36D8900F3610361136123625F3
:10E8A100BE0F80D890223623362436253613501BCE
:10E8B1005C14501C5815501D5816501E58D8A009EC
:10E8C100D0258C13501B5E14501C5A15501D5A161E
:10E8D100501E5A272A190E2764D5D71B501C101D0C
:10E8E100101E10D8B411D022800FD0D8900F36103E
:10E8F100361136123625BE0F80D8902236233624A3
:10E901003625362006D8A0210611AEEFD7000E27F6
:10E911006E25AE17D0FF0E2214176EFF0E231418AA
:10E921006EFF0E2414196E7F0E25141A6E175018DF
:10E931001019101A10D8B403D0010E276E02D00F8F
:10E94100B0FBD72750D8B41FD0010E0F26000E10F0
:10E95100221122122212A017D00FC017F010C018D6
:10E96100F011C019F012C01AF01A341A3219321803
:10E9710032173217C00FF018C010F019C011F01A79
:10E98100C012F0204A212A21BE10D0215003E120DB
:10E9910028D8A00BD0000E216E2068000E0F6E004B
:10E9A1000E106E000E116E000E126E21BE05D021EA
:10E9B1005011E12004D8B00ED0000E216E000E20BF
:10E9C1006E000E0F6E000E106E000E116E000E1214
:10E9D1006E000E1F6E20C026F026A002D0118E01FF
:10E9E100D0119ED8902630126E0ED73A50800B432C
:10E9F1006E3A503A24456E39BE45804550D8B40D23
:10EA0100D04528D8A408D0000E376E000E386E000D
:10EA11000E396E000E3A6E398E06D0000E376E003A
:10EA21000E386E000E396E000E3A6E3E50800B4469
:10EA31006E43504418D8A4438C3E503E24446E3D4E
:10EA4100BE44804450D8B40DD04428D8A408D00086
:10EA51000E3B6E000E3C6E000E3D6E000E3E6E3D96
:10EA61008E06D0000E3B6E000E3C6E000E3D6E0019
:10EA71000E3E6E4550445CD8B022D043AC02D080EB
:10EA81000E431A45C046F044C045F046C044F03735
:10EA9100C046F03BC037F046C03BF038C046F03CC2
:10EAA100C038F046C03CF039C046F03DC039F046B0
:10EAB100C03DF03AC046F03EC03AF046C03EF000DC
:10EAC1000E466E455044C03FF0406A3F5E000E4026
:10EAD1005A40BE2CD0405004E11A0E3F5CD8A0260B
:10EAE100D03750381039103A10D8B402D0010E0185
:10EAF100D0000E466E000E376E000E386E000E39D5
:10EB01006E000E3A6E44C045F015D046A005D0D82F
:10EB11009046300109466E02D0D890463237B04651
:10EB21008E3A343A32393238323732452A445045F6
:10EB31005CD8A0EBD743BC28D04550D8A409D0005D
:10EB41000E376E000E386E000E396E000E3A6E12E0
:10EB5100003B5037263C5038223D5039223E503A36
:10EB6100223AA071D046A005D0D89046300109467E
:10EB71006E02D0D890463237B0468E3A343A3239A6
:10EB81003238323732452A5FD03B50375C3C5038FF
:10EB9100583D5039583A50800A3F6E3E50800A3FE6
:10EBA10058D8B025D037503B5C3F6E38503C584068
:10EBB1006E39503D58416E3A503E58426EFF0E3FFD
:10EBC10024376EFF0E4020386EFF0E4120396EFF54
:10EBD1000E42203A6E800E431A466C4650D8A40F5E
:10EBE100D0010E3726000E382239223A2208D03BB6
:10EBF10050375E3C50385A3D50395A3E503A5A3798
:10EC010050381039103A10D8A41CD04650D8A41945
:10EC1100D0000E376E000E386E000E396E000E3ABF
:10EC21006E1200D8903736383639363A3646BE3706
:10EC31008046A002D0D88001D0D89046364550D821
:10EC4100A4450639AEEED7000E446E46AE0BD04653
:10EC5100C03FF07F0E3F16D8B403D0010E446E02C0
:10EC6100D037B0FBD74450D8B420D0010E3726009E
:10EC71000E382239223A223AA018D037C03FF03854
:10EC8100C040F039C041F03AC042F0423442324112
:10EC91003240323F323FC037F040C038F041C039D6
:10ECA100F042C03AF04528D8A4452A4528D8B403F3
:10ECB100D04550D8A40DD0000E376E000E386E002E
:10ECC1000E396E000E3A6E4550D8A402D0000E43A4
:10ECD1006E45A002D0398E01D0399ED89045303A88
:10ECE1006E43BE3A8E37C037F038C038F039C0397C
:10ECF100F03AC03AF012001250800B1B6E12501203
:10ED010024216E11BE21802150D8B40DD02128D8E4
:10ED1100A408D0000E0F6E000E106E000E116E00D2
:10ED21000E126E118E08D0000E0F6E000E106E00C6
:10ED31000E116E000E126E1650800B1B1A16501615
:10ED4100241C6E15BE1C801C50D8B40DD01C28D8B4
:10ED5100A408D0000E136E000E146E000E156E0086
:10ED61000E166E158E08D0000E136E000E146E0076
:10ED71000E156E000E166E1C50D8B403D02150D85B
:10ED8100A409D0000E0F6E000E106E000E116E0061
:10ED91000E126E120015500F02F3CF26F0F4CF279A
:10EDA100F026501D6E1E6A1F6A206A2750226E23AC
:10EDB1006A246A256A14501002F3CF26F0F4CF2793
:10EDC100F026501D26000E1E221F2220222750222F
:10EDD10026000E23222422252213501102F3CF26CE
:10EDE100F0F4CF27F026501D26000E1E221F2220F0
:10EDF1002227502226000E2322242225221FC02052
:10EE0100F01EC01FF01DC01EF01D6A13501002F34A
:10EE1100CF26F0F4CF27F026501D2627501E2200C2
:10EE21000E1F22000E202214500F02F3CF26F0F401
:10EE3100CF27F026501D2627501E22000E1F22002C
:10EE41000E20221FC020F01EC01FF01DC01EF01D8D
:10EE51006A13500F02F3CF26F0F4CF27F026501D8E
:10EE61002627501E22000E1F22000E2022155010B0
:10EE710002F3CF26F0F4CF27F02650222627502385
:10EE810022000E2422000E252214501102F3CF2657
:10EE9100F0F4CF27F02650222627502322000E24FB
:10EEA10022000E252215501102F3CF26F0F4CF27B0
:10EEB100F02650176E2750186E196A1A6A19C01A6F
:10EEC100F018C019F017C018F0176A175022261849
:10EED100502322195024221A502522205022260084
:10EEE1000E2322242225221FC020F01EC01FF01D48
:10EEF100C01EF01D6A1C5021C017F0186A172600A9
:10EF01000E1822820E1724266EFF0E1820276E0F70
:10EF1100D0D890223623362436253620BE2280D8FA
:10EF2100901D361E361F3620362606D8A027062409
:10EF3100AEEFD7000E1C6E20AE17D0FF0E1D1417BA
:10EF41006EFF0E1E14186EFF0E1F14196E7F0E2019
:10EF5100141A6E1750181019101A10D8B403D001D2
:10EF61000E1C6E02D022B0FBD71C50D8B41FD001AA
:10EF71000E2226000E23222422252225A017D0228C
:10EF8100C017F023C018F024C019F025C01AF01AD8
:10EF9100341A3219321832173217C022F018C0232E
:10EFA100F019C024F01AC025F0264A272A27BE0DE1
:10EFB100D0275003E12628D8A008D0000E226E00E9
:10EFC1000E236E800E246E7F0E20D027BE05D02723
:10EFD100500EE12604D8B00BD0000E226E000E2395
:10EFE1006E000E246E000E256E000E1B6E0FD026D5
:10EFF100C021F0FF0E2216FF0E23167F0E241600ED
:10F001000E251621B0248ED8902130256E1B502557
:10F011001222C00FF023C010F024C011F025C0123D
:10F02100F01200306E30AEF3D0306C3050800A12E6
:10F031000FD8A088D0000E0A6E0A0E096E000E04C9
:10F041006E640E036E3050016E026A01BE0206A9A3
:10F05100EC6CF001C007F002C008F05CEC6DF00947
:10F061000E07260750040D810EF324F66EFE0EF4F2
:10F0710020F76E0900F5CF13F00900F5CF14F00960
:10F0810000F5CF15F00A00F5CF16F0000E0A6E64F8
:10F091000E096E3050076E086A07BE08065CEC6DFB
:10F0A100F0120E07260750040D810EF324F66EFEB2
:10F0B1000EF420F76E0900F5CF0FF00900F5CF101F
:10F0C100F00900F5CF11F00A00F5CF12F07CEC76D3
:10F0D100F00FC02CF010C02DF011C02EF012C02F77
:10F0E100F02CC00FF02DC010F02EC011F02FC01267
:10F0F100F0000E046E0A0E036E3050016E026A01BA
:10F10100BE0206A9EC6CF00150040D810EF324F649
:10F111006EFE0EF420F76E0900F5CF13F00900F52D
:10F12100CF14F00900F5CF15F00A00F5CF16F07CE9
:10F13100EC76F00FC028F010C029F011C02AF012AF
:10F14100C02BF012003050800A750FD8A04BD000B0
:10F151000E0A6E0A0E096E3050076E086A07BE0865
:10F16100065CEC6DF0090E07260750040D810EF3C5
:10F1710024F66EFE0EF420F76E0900F5CF0FF009AC
:10F1810000F5CF10F00900F5CF11F00A00F5CF120C
:10F19100F0000E046E0A0E036E3050016E026A0119
:10F1A100BE0206A9EC6CF00150040D810EF324F6A9
:10F1B1006EFE0EF420F76E0900F5CF13F00900F58D
:10F1C100CF14F00900F5CF15F00A00F5CF16F07C49
:10F1D100EC76F00FC028F010C029F011C02AF0120F
:10F1E100C02BF012003050040D810EF324F66EFE98
:10F1F1000EF420F76E0900F5CF28F00900F5CF29AC
:10F20100F00900F5CF2AF00A00F5CF2BF0120030FB
:10F2110050800A120FD8A088D0000E0A6E0A0E097B
:10F221006E000E046E640E036E3050016E026A01B0
:10F23100BE0206A9EC6CF001C007F002C008F05C48
:10F24100EC6DF0090E07260750040D4D0EF324F660
:10F251006EFE0EF420F76E0900F5CF13F00900F5EC
:10F26100CF14F00900F5CF15F00A00F5CF16F00024
:10F271000E0A6E640E096E3050076E086A07BE08EA
:10F28100065CEC6DF0120E07260750040D4D0EF3CF
:10F2910024F66EFE0EF420F76E0900F5CF0FF0098B
:10F2A10000F5CF10F00900F5CF11F00A00F5CF12EB
:10F2B100F07CEC76F00FC02CF010C02DF011C02EB8
:10F2C100F012C02FF02CC00FF02DC010F02EC01185
:10F2D100F02FC012F0000E046E0A0E036E305001C2
:10F2E1006E026A01BE0206A9EC6CF00150040D4DDC
:10F2F1000EF324F66EFE0EF420F76E0900F5CF131F
:10F30100F00900F5CF14F00900F5CF15F00A00F56A
:10F31100CF16F07CEC76F00FC028F010C029F01168
:10F32100C02AF012C02BF012003050800A750FD89D
:10F33100A04BD0000E0A6E0A0E096E3050076E08FF
:10F341006A07BE08065CEC6DF0090E07260750043B
:10F351000D4D0EF324F66EFE0EF420F76E0900F546
:10F36100CF0FF00900F5CF10F00900F5CF11F00A29
:10F3710000F5CF12F0000E046E0A0E036E3050013C
:10F381006E026A01BE0206A9EC6CF00150040D4D3B
:10F391000EF324F66EFE0EF420F76E0900F5CF137E
:10F3A100F00900F5CF14F00900F5CF15F00A00F5CA
:10F3B100CF16F07CEC76F00FC028F010C029F011C8
:10F3C100C02AF012C02BF012003050040D4D0EF384
:10F3D10024F66EFE0EF420F76E0900F5CF28F00931
:10F3E10000F5CF29F00900F5CF2AF00A00F5CF2B5F
:10F3F100F01200510E0001A96F17EF7EF0250EBC2F
:10F4010019D8B405D0BC51FDEC68F017EF7EF000BF
:10F411000EAB6F000EAA6F04D0AB851FD0AA8F1D53
:10F42100D04FC0F6FF50C0F7FF4F4A502A0800F5F1
:10F43100CFBCF0BC51000AD8B41200580AD8B4EEBF
:10F44100D73C0AD8B40AD0020AD8B4E6D70F0AD8F2
:10F45100B404D0110AD8B4E2D7E9D3070EAB15D85A
:10F46100B4E1D2000EAD6F060EAC6FA951D96EDAC0
:10F471006ADECFB8F0DECFB9F0DECFBAF0DECFBBB7
:10F48100F0040EA927BBAF14D0B8C001F0B9C00277
:10F49100F0BAC003F0BBC004F036EC6AF001C0B8AA
:10F4A100F002C0B9F003C0BAF004C0BBF0030EAA69
:10F4B10013000EAF6F000EAE6FB8C001F0B9C002FD
:10F4C100F0BAC003F0BBC004F0000E056E000E06DA
:10F4D1006E000E076E000E086E9EEC6DF0D8B082C5
:10F4E100D0BA35BB35820FAE6FAF6BFF0EAF23AE17
:10F4F10007D8A0AF07AEC001F0AFC002F0000E0404
:10F501006E030E036E8DEC69F001C0AEF002C0AF68
:10F51100F0AEC007F0AFC008F0000E0A6E0A0E0987
:10F521006E5CEC6DF007C0AEF008C0AFF00001AF4B
:10F53100AF03D0AE07D8A0AF07AE51000812EC78E8
:10F54100F028C0B0F029C0B1F02AC0B2F02BC0B38E
:10F55100F0B0C00FF0B1C010F0B2C011F0B3C012E2
:10F56100F0B8C013F0B9C014F0BAC015F0BBC016A2
:10F57100F07CEC76F00FC0B0F010C0B1F011C0B269
:10F58100F012C0B3F0B0C001F0B1C002F0B2C003DC
:10F59100F0B3C004F0000E056E000E066E800E077B
:10F5A1006E3F0E086EA6EC6EF0D8B005D00001AE2D
:10F5B10007D8A0AF0717D0B0C001F0B1C002F0B2B8
:10F5C100C003F0B3C004F0000E056E000E066E20FD
:10F5D1000E076E410E086EA6EC6EF0D8A003D000A7
:10F5E10001AE4BAF2BB8C037F0B9C038F0BAC03953
:10F5F100F0BBC03AF0060E7DEC72F028C03BF0295A
:10F60100C03CF02AC03DF02BC03EF0F6EC74F03760
:10F61100C0B8F038C0B9F039C0BAF03AC0BBF00098
:10F6210001AFBF06D0AF5131E10A0EAE5DD8B02DAA
:10F63100D0B8C001F0B9C002F0BAC003F0BBC00439
:10F64100F0000E056E000E066E000E076E000E082D
:10F651006E9EEC6DF0D8B064D0B8C031F0B9C03254
:10F66100F0BAC033F0BBC034F0E3EC6DF03150328E
:10F671001033103410D8A454D00001AFBF51D0AF13
:10F681005104E1020EAE5DD8A04BD0B0C001F0B183
:10F69100C002F0B2C003F0B3C004F05F0E056E709B
:10F6A1000E066E890E076E400E086EA6EC6EF0D83F
:10F6B100B003D00001F70E02D00001F80EAE27FF13
:10F6C1000EAF23AE5112EC78F028C0B0F029C0B1D2
:10F6D100F02AC0B2F02BC0B3F0B8C001F0B9C0023B
:10F6E100F0BAC003F0BBC004F0B0C005F0B1C00671
:10F6F100F0B2C007F0B3C008F00EEC6FF001C0B477
:10F70100F002C0B5F003C0B6F004C0B7F0000E00BF
:10F7110001B86F000EB96F000EBA6F000EBB6F3CDF
:10F72100D0B8C031F0B9C032F0BAC033F0BBC03488
:10F73100F0E3EC6DF031C0B4F032C0B5F033C0B6D7
:10F74100F034C0B7F0B8C047F0B9C048F0BAC0490A
:10F75100F0BBC04AF0B4C001F0B5C002F0B6C003BE
:10F76100F0B7C004F0000E1AEC71F001C04BF002CA
:10F77100C04CF003C04DF004C04EF005EC6BF047F7
:10F78100C0B8F048C0B9F049C0BAF04AC0BBF000F7
:10F791000E0001AF6F000EAE6F010EBC6FBC5104C5
:10F7A1000DD50EF324F66EFE0EF420F76E0900F56A
:10F7B10050B45D0900F550B5590900F550B6590925
:10F7C10000F550B759D8A005D0BC2B0A0EBC19D8EA
:10F7D100A4E5D7AAC055F0030E5516D8B449D02DCB
:10F7E1000EFDEC68F045D0B4C001F0B5C002F0B632
:10F7F100C003F0B7C004F0BC51040DD50EF324F6DC
:10F801006EFE0EF420F76E0900F5CF05F00900F544
:10F81100CF06F00900F5CF07F00A00F5CF08F01B7D
:10F82100EC6DF001C0B0F002C0B1F003C0B2F00461
:10F83100C0B3F0B0C00EF0B1C00FF0B2C010F0B361
:10F84100C011F00A0E126E000E136E000E146E003F
:10F851000E156E76EC6CF00EC0B0F00FC0B1F0106A
:10F86100C0B2F011C0B3F00001B051300FFDEC682F
:10F87100F00001BC07BC29D8B408D0B5D7300EFDC3
:10F88100EC68F00001AE07D8A0AF07AFBF05D0AF5D
:10F8910051F5E1AE05D8B0F2D7ADBF09D0AD5104F5
:10F8A100E1090EAC5DD8A003D0080EBC6F02D0AC4C
:10F8B100C0BCF0BC51AC5F000EAD5BBC51D8B40311
:10F8C100D02E0EFDEC68F00001BC5112EC78F0284E
:10F8D100C0A4F029C0A5F02AC0A6F02BC0A7F0B89B
:10F8E100C013F0B9C014F0BAC015F0BBC016F0A433
:10F8F100C00FF0A5C010F0A6C011F0A7C012F07C97
:10F90100EC76F00FC031F010C032F011C033F012BC
:10F91100C034F0E3EC6DF031C0B4F032C0B5F03377
:10F92100C0B6F034C0B7F06CD0B4C001F0B5C002BD
:10F93100F0B6C003F0B7C004F0BC51040DD50EF30E
:10F9410024F66EFE0EF420F76E0900F5CF05F009DE
:10F9510000F5CF06F00900F5CF07F00A00F5CF0852
:10F96100F01BEC6DF001C0B0F002C0B1F003C0B209
:10F97100F004C0B3F0B0C00EF0B1C00FF0B2C010CF
:10F98100F0B3C011F00A0E126E000E136E000E14C9
:10F991006E000E156E76EC6CF00EC0B0F00FC0B1BB
:10F9A100F010C0B2F011C0B3F00001B051300FFD42
:10F9B100EC68F0B4C00EF0B5C00FF0B6C010F0B7EF
:10F9C100C011F00001BC51040DD50EF324F66EFEFA
:10F9D1000EF420F76E0900F5CF12F00900F5CF13F0
:10F9E100F00900F5CF14F00A00F5CF15F076EC6CB4
:10F9F100F00EC0B4F00FC0B5F010C0B6F011C0B732
:10FA0100F00001BC07BC29D8B408D08ED7300EFD58
:10FA1100EC68F00001AC07D8A0AD07AC51AD11D82E
:10FA2100B405D1F4D7AABF1BD0A951D96EDA6ADEC9
:10FA3100CFB4F0DDCFB5F0000EB5BFFF0EB66FB796
:10FA41006F020EA927B7AF57D0030EAA13B71FB67F
:10FA51001FB51FB46D000EB523B623B7234CD0A933
:10FA610051D96EDA6ADECF55F0DDCF56F055C0B40C
:10FA7100F056C0B5F0B66BB76B020EA9273CD001AA
:10FA81000EBC6FBC51040DD50EF324F66EFE0EF4C0
:10FA910020F76E0900F550B45D0900F550B559091C
:10FAA10000F550B6590900F550B759D8A02CD0BC73
:10FAB1002B0A0EBC19D8B427D0E4D7010EBC6FBCF9
:10FAC10051040DB50EF324F66EFE0EF420F76E0907
:10FAD10000F550B45D0900F550B5590900F550B66F
:10FAE100590900F550B759D8A00ED0BC2B080EBC4F
:10FAF10019D8B409D0E4D7AA51800B000AD8B4BFF1
:10FB0100D7800AD8B4DAD7AAC055F0030E5516D853
:10FB1100B403D02D0EFDEC68F0BCC0ACF00001AD1B
:10FB21006B7CD0ACC055F0ADC056F0D89055365670
:10FB310036D89055365636D50E5524F66EFE0E56ED
:10FB410020F76E0900F5CF05F00900F5CF06F009A1
:10FB510000F5CF07F00A00F5CF08F0B4C001F0B509
:10FB6100C002F0B6C003F0B7C004F01BEC6DF001A9
:10FB7100C00EF002C00FF003C010F004C011F00A73
:10FB81000E126E000E136E000E146E000E156E76C0
:10FB9100EC6CF00E50300F0001BC6F3CD0B4C001D2
:10FBA100F0B5C002F0B6C003F0B7C004F0ACC05568
:10FBB100F0ADC056F0D89055365636D890553656D9
:10FBC10036B50E5524F66EFE0E5620F76E0900F579
:10FBD100CF05F00900F5CF06F00900F5CF07F00ACF
:10FBE10000F5CF08F01BEC6DF001500F0B0001A8E0
:10FBF1006F6D0EA825F66EF76AFF0EF7220800F565
:10FC0100CFBCF008D0AA51800B000AD8B48AD780A3
:10FC11000AD8B4C4D7BC51FDEC68F00001AC07D8D8
:10FC2100A0AD07AC29EFE1AD29D8A4ECD74FC0F6C0
:10FC3100FF50C0F7FF4F4A502A0800F5CFBCF00033
:10FC410001BC51D8B41200FFEF79F0000000C1C02F
:10FC510081C1400101C3C003800241C201C6C00687
:10FC6100800741C70005C1C581C4400401CCC00C57
:10FC7100800D41CD000FC1CF81CE400E000AC1CA17
:10FC810081CB400B01C9C009800841C801D8C01807
:10FC9100801941D9001BC1DB81DA401A001EC1DE87
:10FCA10081DF401F01DDC01D801C41DC0014C1D477
:10FCB10081D5401501D7C017801641D601D2C01297
:10FCC100801341D30011C1D181D0401001F0C03067
:10FCD100803141F10033C1F381F240320036C1F687
:10FCE10081F7403701F5C035803441F4003CC1FC57
:10FCF10081FD403D01FFC03F803E41FE01FAC03A17
:10FD0100803B41FB0039C1F981F840380028C1E846
:10FD110081E9402901EBC02B802A41EA01EEC02E86
:10FD2100802F41EF002DC1ED81EC402C01E4C02476
:10FD3100802541E50027C1E781E640260022C1E296
:10FD410081E3402301E1C021802041E001A0C060A6
:10FD5100806141A10063C1A381A240620066C1A686
:10FD610081A7406701A5C065806441A4006CC1AC56
:10FD710081AD406D01AFC06F806E41AE01AAC06A16
:10FD8100806B41AB0069C1A981A840680078C1B806
:10FD910081B9407901BBC07B807A41BA01BEC07E86
:10FDA100807F41BF007DC1BD81BC407C01B4C07476
:10FDB100807541B50077C1B781B640760072C1B296
:10FDC10081B3407301B1C071807041B00050C190E6
:10FDD100819140510193C053805241920196C05686
:10FDE100805741970055C19581944054019CC05C56
:10FDF100805D419D005FC19F819E405E005AC19A16
:10FE0100819B405B0199C059805841980188C04845
:10FE110080494189004BC18B818A404A004EC18E85
:10FE2100818F404F018DC04D804C418C0044C18475
:10FE3100818540450187C047804641860182C04295
:10FE4100804341830041C181818040400000803F67
:10FE5100000020410000C84200007A4400401C46D6
:10FE61000050C347002474498096184B20BCBE4CF7
:10FE7100286B6E4EF9021550EC78AD60CAF24971EB
:10FE81000000803FCDCCCC3D0AD7233C6F12833A92
:10FE910017B7D138ACC52737BD37863595BFD633AF
:10FEA10077CC2B325F708930FFE6DB2E08E53C1EF4
:10FEB1006042A20D010000001000000000010000DE
:10FEC100001000000000010000001000000000010F
:10FED10000000010010000000A00000064000000A2
:10FEE100E803000010270000A086010040420F0037
:10FEF1008096980000E1F50500CA9A3B5761697444
:10FF010020666F7220656E64206F66207472616E68
:10FF1100736D697373696F6E2E2E2E0D0A004C6F0F
:10FF210052613836382055562F56697369626C65AF
:10FF3100204C696768742053656E736F720D0A00F7
:10FF41005374617274696E67207472616E736D6946
:10FF5100747465722E2E2E0D0A005472616E736DCB
:10FF6100697474696E672E2E2E2E20003031323363
:10FF71003435363738394142434445460052656786
:10FF81002025583A25580D0A00536C656570696E35
:10FF9100670D0A005458204D6F64650D0A00434DEA
:10FFA10050312025640D0A00434D50322025640D47
:10FFB1000A0054454D502025640D0A004241545415
:10FFC1002025640D0A005458463A2025660D0A0082
:10FFD1005458204661696C0D0A005556412025642C
:10FFE1000D0A005556422025640D0A00564953203A
:0EFFF10025640D0A00446F6E652E0D0A000097
:020000040020DA
:08000000FFFFFFFFFFFFFFFF00
:020000040030CA
:0E000000FF331C3BFFBD85FF0FC00FE00F401C
:00000001FF
